SYSTEM1   WAMAS     00000120230430052230AUSK000560001234567/1234567     HOST 1234567             CAMION0002132         Ginger D. Morris                                                                Ethan Silva                             Station Service 1234                    Monsieur       3509 O Conner Street                                                            1292      Gulfport                                                                            012 345 67 89                      abcxyz123@mailabcd.xyz                  022 345 67 89                                                                      Ginger D. Morris                                                                Station Service 1234                    Ethan Silva                             Monsieur       3509 O Conner Street                                                            1292      Gulfport                                                                            012 345 67 89                      abcxyz123@mailabcd.xyz                  022 345 67 89                                                                      Ginger D. Morris                                                                Station Service 1234                    Ethan Silva                             Monsieur       3509 O Conner Street                                                            1292      Gulfport                                                                            012 345 67 89                      abcxyz123@mailabcd.xyz                  022 345 67 89                                                                      20230430110000ABCD-01                                                                                                                   202304140000002023041100000020230414000000FRUEH20230414000000FRUEHGE 2/456789         HOST           00000800000000000000000000                              CAM                                                                                                 0010                                                                                                    ST               Def_Strat      
SYSTEM1   WAMAS     00001120230430052230AUSP000540001234567/1234567     HOST                     00001100044629               00000                    DISPONIBLE                                                  0000000000000000000000000000   000000240000BOITE00000000000000   NN                                                            N                                                       0000N          
SYSTEM1   WAMAS     00002120230430052230AUSP000540001234567/1234567     HOST 1234567             00002100044728               00000                    DISPONIBLE                                                  0000000000000000000000000000   000000120000BOITE00000000000000   NN                                                            N                                                       0000N          
SYSTEM1   WAMAS     00003120230430052230AUSP000540001234567/1234567     HOST 1234567             00003100044638               00000                    DISPONIBLE                                                  0000000000000000000000000000   000000072000BOITE00000000000000   NN                                                            N                                                       0000N          
SYSTEM1   WAMAS     00004120230430052230AUSP000540001234567/1234567     HOST 1234567             0000410006076                00000                    DISPONIBLE                                                  0000000000000000000000000000   000000012000PET  00000000000000   NN                                                            N                                                       0000N          
SYSTEM1   WAMAS     00005120230430052231AUSP000540001234567/1234567     HOST 1234567             0000510007076                00000                    DISPONIBLE                                                  0000000000000000000000000000   000000150000PET  00000000000000   NN                                                            N                                                       0000N          
SYSTEM1   WAMAS     00006120230430052231AUSP000540001234567/1234567     HOST 1234567             0000610006056                00000                    DISPONIBLE                                                  0000000000000000000000000000   000000024000PET  00000000000000   NN                                                            N                                                       0000N          
SYSTEM1   WAMAS     00007120230430052231AUSP000540001234567/1234567     HOST 1234567             00007100041055               00000                    DISPONIBLE                                                  0000000000000000000000000000   000000024000PET  00000000000000   NN                                                            N                                                       0000N          
SYSTEM1   WAMAS     00008120230430052231AUSP000540001234567/1234567     HOST 1234567             00008100027056               00000                    DISPONIBLE                                                  0000000000000000000000000000   000000024000PET  00000000000000   NN                                                            N                                                       0000N          
SYSTEM1   WAMAS     00009120230430052231AUSP000540001234567/1234567     HOST 1234567             00009100041156               00000                    DISPONIBLE                                                  0000000000000000000000000000   000000024000PET  00000000000000   NN                                                            N                                                       0000N          
SYSTEM1   WAMAS     00010120230430052231AUSP000540001234567/1234567     HOST 1234567             00010100053026               00000                    DISPONIBLE                                                  0000000000000000000000000000   000000024000PET  00000000000000   NN                                                            N                                                       0000N          
SYSTEM1   WAMAS     00011120230430052231AUSP000540001234567/1234567     HOST 1234567             00011100053126               00000                    DISPONIBLE                                                  0000000000000000000000000000   000000024000PET  00000000000000   NN                                                            N                                                       0000N          
SYSTEM1   WAMAS     00012120230430052231AUSP000540001234567/1234567     HOST 1234567             00012100010358               00000                    DISPONIBLE                                                  0000000000000000000000000000   000000024000BOITE00000000000000   NN                                                            N                                                       0000N          
SYSTEM1   WAMAS     00013120230430052232AUSP000540001234567/1234567     HOST 1234567             00013100022538               00000                    DISPONIBLE                                                  0000000000000000000000000000   000000024000BOITE00000000000000   NN                                                            N                                                       0000N          
SYSTEM1   WAMAS     00014120230430052232AUSP000540001234567/1234567     HOST 1234567             00014100022038               00000                    DISPONIBLE                                                  0000000000000000000000000000   000000024000BOITE00000000000000   NN                                                            N                                                       0000N          
SYSTEM1   WAMAS     00015120230430052232AUSP000540001234567/1234567     HOST 1234567             00015100070758               00000                    DISPONIBLE                                                  0000000000000000000000000000   000000024000BOITE00000000000000   NN                                                            N                                                       0000N          
SYSTEM1   WAMAS     00016120230430052232AUSP000540001234567/1234567     HOST 1234567             00016100037055               00000                    DISPONIBLE                                                  0000000000000000000000000000   000000024000PET  00000000000000   NN                                                            N                                                       0000N          
SYSTEM1   WAMAS     00017120230430052232AUSP000540001234567/1234567     HOST 1234567             00017100022976               00000                    DISPONIBLE                                                  0000000000000000000000000000   000000012000PET  00000000000000   NN                                                            N                                                       0000N          
SYSTEM1   WAMAS     00018120230430052232AUSP000540001234567/1234567     HOST 1234567             00018100022876               00000                    DISPONIBLE                                                  0000000000000000000000000000   000000024000PET  00000000000000   NN                                                            N                                                       0000N          
SYSTEM1   WAMAS     00019120230430052232AUSP000540001234567/1234567     HOST 1234567             00019100027076               00000                    DISPONIBLE                                                  0000000000000000000000000000   000000006000PET  00000000000000   NN                                                            N                                                       0000N          
SYSTEM1   WAMAS     00020120230430052232AUSP000540001234567/1234567     HOST 1234567             0002010001156                00000                    DISPONIBLE                                                  0000000000000000000000000000   000000024000PET  00000000000000   NN                                                            N                                                       0000N          
SYSTEM1   WAMAS     00021120230430052232AUSP000540001234567/1234567     HOST 1234567             0002110008256                00000                    DISPONIBLE                                                  0000000000000000000000000000   000000048000PET  00000000000000   NN                                                            N                                                       0000N          
SYSTEM1   WAMAS     00022120230430052233AUSP000540001234567/1234567     HOST 1234567             0002210001236                00000                    DISPONIBLE                                                  0000000000000000000000000000   000000024000PET  00000000000000   NN                                                            N                                                       0000N          
SYSTEM1   WAMAS     00023120230430052233AUSP000540001234567/1234567     HOST 1234567             00023100022845               00000                    DISPONIBLE                                                  0000000000000000000000000000   000000240000PET  00000000000000   NN                                                            N                                                       0000N          
SYSTEM1   WAMAS     00024120230430052233AUSP000540001234567/1234567     HOST 1234567             00024100022945               00000                    DISPONIBLE                                                  0000000000000000000000000000   000000120000PET  00000000000000   NN                                                            N                                                       0000N          
SYSTEM1   WAMAS     00025120230430052233AUSP000540001234567/1234567     HOST 1234567             0002510007056                00000                    DISPONIBLE                                                  0000000000000000000000000000   000000240000PET  00000000000000   NN                                                            N                                                       0000N          
SYSTEM1   WAMAS     00026120230430052233AUSP000540001234567/1234567     HOST 1234567             0002610007055                00000                    DISPONIBLE                                                  0000000000000000000000000000   000000360000PET  00000000000000   NN                                                            N                                                       0000N          
SYSTEM1   WAMAS     00027120230430052233AUSP000540001234567/1234567     HOST 1234567             0002710006057                00000                    DISPONIBLE                                                  0000000000000000000000000000   000000060000PET  00000000000000   NN                                                            N                                                       0000N          
SYSTEM1   WAMAS     00028120230430052233AUSP000540001234567/1234567     HOST 1234567             00028100015455               00000                    DISPONIBLE                                                  0000000000000000000000000000   000000008000TETRA00000000000000   NN                                                            N                                                       0000N          
SYSTEM1   WAMAS     00029120230430052233AUSP000540001234567/1234567     HOST 1234567             00029100016555               00000                    DISPONIBLE                                                  0000000000000000000000000000   000000008000TETRA00000000000000   NN                                                            N                                                       0000N          
SYSTEM1   WAMAS     00030120230430052234AUSP000540001234567/1234567     HOST 1234567             00030100036456               00000                    DISPONIBLE                                                  0000000000000000000000000000   000000024000PET  00000000000000   NN                                                            N                                                       0000N          
SYSTEM1   WAMAS     00031120230430052234AUSP000540001234567/1234567     HOST 1234567             00031100038955               00000                    DISPONIBLE                                                  0000000000000000000000000000   000000024000PET  00000000000000   NN                                                            N                                                       0000N          
SYSTEM1   WAMAS     00032120230430052234AUSP000540001234567/1234567     HOST 1234567             00032100039655               00000                    DISPONIBLE                                                  0000000000000000000000000000   000000060000PET  00000000000000   NN                                                            N                                                       0000N          
SYSTEM1   WAMAS     00033120230430052234AUSP000540001234567/1234567     HOST 1234567             00033100037855               00000                    DISPONIBLE                                                  0000000000000000000000000000   000000024000PET  00000000000000   NN                                                            N                                                       0000N          
SYSTEM1   WAMAS     00034120230430052234AUSP000540001234567/1234567     HOST 1234567             00034100021456               00000                    DISPONIBLE                                                  0000000000000000000000000000   000000030000PET  00000000000000   NN                                                            N                                                       0000N          
SYSTEM1   WAMAS     00035120230430052234AUSP000540001234567/1234567     HOST 1234567             00035100037755               00000                    DISPONIBLE                                                  0000000000000000000000000000   000000018000PET  00000000000000   NN                                                            N                                                       0000N          
SYSTEM1   WAMAS     00036120230430052234AUSP000540001234567/1234567     HOST 1234567             00036100037155               00000                    DISPONIBLE                                                  0000000000000000000000000000   000000018000PET  00000000000000   NN                                                            N                                                       0000N          
SYSTEM1   WAMAS     00037120230430052234AUSP000540001234567/1234567     HOST 1234567             00037100040138               00000                    DISPONIBLE                                                  0000000000000000000000000000   000000048000BOITE00000000000000   NN                                                            N                                                       0000N          
